:020000040000FA
:06000000B9EF04F012004C
:0A000600010090090000A0000000B6
:0400100006000000E6
:0C001400D9CFE6FFE1CFD9FF040EE126B2
:10002000DE6ADE6ADE6ADD6ADD52DD52D9CFE9FFC3
:10003000DACFEAFFD880200EEE54000EEE54000E08
:10004000EE54000EEE540AE3D9CFE9FFDACFEAFF0F
:10005000EE2A000EEE22EE22EE22E8D7040EE15C3C
:1000600002E2E16AE552E16EE552E7CFD9FF120004
:10007000D9CFE6FFE1CFD9FF040EE126DE6ADE6AC2
:10008000DE6ADD6ADD52DD52D9CFE9FFDACFEAFF61
:10009000D880280EEE54000EEE54000EEE54000EE2
:1000A000EE540AE3D9CFE9FFDACFEAFFEE2A000ED9
:1000B000EE22EE22EE22E8D7040EE15C02E2E16AD3
:1000C000E552E16EE552E7CFD9FF1200D9CFE6FF46
:1000D000E1CFD9FF040EE126DE6ADE6ADE6ADD6A60
:1000E000DD52DD52D9CFE9FFDACFEAFFD8803B0EEF
:1000F000EE54000EEE54000EEE54000EEE540AE3E1
:10010000D9CFE9FFDACFEAFFEE2A000EEE22EE2287
:10011000EE22E8D7040EE15C02E2E16AE552E16E0C
:10012000E552E7CFD9FF1200D9CFE6FFE1CFD9FFE3
:10013000040EE126DE6ADE6ADE6ADD6ADD52DD5229
:10014000D9CFE9FFDACFEAFFD8803F0EEE54000E98
:10015000EE54000EEE54000EEE540AE3D9CFE9FF40
:10016000DACFEAFFEE2A000EEE22EE22EE22E8D7E8
:10017000040EE15C02E2E16AE552E16EE552E7CF8E
:10018000D9FF1200D9CFE6FFE1CFD9FF040EE12657
:10019000DE6ADD6ADECF14F0DDCF15F0D8901550A1
:1001A00004E60A0E145C000E15581DE2020EDB6A0E
:1001B000030EDB6A020EDBCF14F0030EDBCF15F06B
:1001C000D890155004E60A0E145C000E155806E28D
:1001D000020EDB2A030E01E3DB2AECD7DF2A010E35
:1001E00001E3DB2AD7D7040EE15C02E2E16AE552C3
:1001F000E16EE552E7CFD9FF1200D9CFE6FFE1CF9C
:10020000D9FF020EE126DE6ADD6A80928DDFDECF45
:1002100014F0DDCF15F0D890155004E6080E145CEC
:10022000000E155858E2FD0EDBCFE9FFFE0EDBCFC6
:10023000EAFFD890E936EA36A00EE926000EEA2257
:10024000EECF14F0EFCF15F0020E0D6E0E6A14C053
:1002500008F015C009F0F1EC03F004C014F005C07B
:1002600015F01450E8B08082E8A0809201DFDF2A08
:10027000010E01E3DB2AFD0EDBCFE9FFFE0EDBCF33
:10028000EAFFD890E936EA36A00EE926000EEA2207
:10029000EECF14F0EFCF15F0020E0D6E0E6A14C003
:1002A00008F015C009F0F1EC03F008C014F009C023
:1002B00015F0FD0EDBCFE9FFFE0EDBCFEAFFD89095
:1002C000E936EA36A00EE926000EEA2214C0EEFF57
:1002D00015C0EDFF9CD7808227DF020EE15C02E2B1
:1002E000E16AE552E16EE552E7CFD9FF1200D9CFBE
:1002F000E6FFE1CFD9FF020EE126080EDE6EDD6AD1
:1003000089DE8090DECF14F0DDCF15F0153404E2E5
:1003100014500008000E155418E28050010BE66ED0
:10032000DECFE9FFDDCFEAFFD890E936EA36600E8E
:10033000E926000EEA22E552E750EE6EED6AC6DECF
:10034000DF06010E01E2DB06DDD764DE60C022F0CD
:1003500061C023F0070ED89022362336E806FBE171
:10036000400E086E096A62C00DF063C00EF017EC13
:1003700004F022500624206E23500720216E200E08
:10038000086E096A64C00DF065C00EF017EC04F049
:10039000205006241E6E215007201F6E100E086E7E
:1003A000096A66C00DF067C00EF017EC04F01E502D
:1003B00006241C6E1F5007201D6E080E086E096A69
:1003C00068C00DF069C00EF017EC04F01C50062454
:1003D0001A6E1D5007201B6E040E086E096A6AC053
:1003E0000DF06BC00EF017EC04F01A500624186ED6
:1003F0001B500720196E020E086E096A6CC00DF0C2
:100400006DC00EF017EC04F018500624166E19504B
:100410000720176E165000016E25146E17506F21BD
:10042000156EFD0EDBCFE9FFFE0EDBCFEAFFD890A5
:10043000E936EA36700EE926000EEA2214C0EEFF15
:1004400015C0EDFFE7DD020EE15C02E2E16AE55274
:10045000E16EE552E7CFD9FF1200D9CFE6FFE1CF39
:10046000D9FF020EE126010EDE6EDD6A2C0E0001C0
:10047000946F956BDECF14F0DDCF15F0D89015504A
:1004800004E6110E145C000E15580EE280B0FED783
:10049000DECFE6FFDDCFE6FF2ADFE552E552DF2AB9
:1004A000010E01E3DB2AE6D7020EE15C02E2E16A1B
:1004B000E552E16EE552E7CFD9FF1200D9CFE6FF52
:1004C000E1CFD9FF020EE126DE6ADD6A80922CDEE2
:1004D000DECF14F0DDCF15F0D890155004E6080EED
:1004E000145C000E155858E2FD0EDBCFE9FFFE0E3E
:1004F000DBCFEAFFD890E936EA36700EE926000E27
:10050000EA22EECF14F0EFCF15F0020E0D6E0E6A58
:1005100014C008F015C009F0F1EC03F004C014F0A9
:1005200005C015F01450E8B08082E8A08092A0DDEC
:10053000DF2A010E01E3DB2AFD0EDBCFE9FFFE0E11
:10054000DBCFEAFFD890E936EA36700EE926000ED6
:10055000EA22EECF14F0EFCF15F0020E0D6E0E6A08
:1005600014C008F015C009F0F1EC03F008C014F055
:1005700009C015F0FD0EDBCFE9FFFE0EDBCFEAFF71
:10058000D890E936EA36700EE926000EEA2214C049
:10059000EEFF15C0EDFF9CD78082C6DD020EE15C48
:1005A00002E2E16AE552E16EE552E7CFD9FF1200BF
:1005B000D9CFE6FFE1CFD9FF020EE126DE6ADD6A80
:1005C000DECF14F0DDCF15F0D890155004E6030E01
:1005D000145C000E15580CE2DECFE6FFDDCFE6FF1F
:1005E0000CDEE552E552DF2A010E01E3DB2AE8D7F3
:1005F000DE6ADD6ADECF14F0DDCF15F0D89015503D
:1006000004E6130E145C000E15580CE2DECFE6FF74
:10061000DDCFE6FF53DFE552E552DF2A010E01E3AD
:10062000DB2AE8D7020EE15C02E2E16AE552E16E04
:10063000E552E7CFD9FF1200D9CFE6FFE1CFD9FFCE
:10064000FD0EDB50836E8490849484829BDD8492C3
:10065000E552E7CFD9FF1200D9CFE6FFE1CFD9FFAE
:10066000FE0EDB50836E8480849484828BDD8492C2
:10067000E552E7CFD9FF1200D9CFE6FFE1CFD9FF8E
:10068000150EE126D950020FE96EDACFEAFF550EBA
:10069000EE6E730EEE6E750EEE6E610EEE6E720EF7
:1006A000EE6E690EEE6E6F0EEE6EEE6AD9500A0FA8
:1006B000E96EDACFEAFF410EEE6E750EEE6E740E45
:1006C000EE6E6F0EEE6E720EEE6E690EEE6E7A0EBE
:1006D000EE6E610EEE6E640EEE6E6F0EEE6EEE6AF4
:1006E000380EE66EE66AA8DFE552E5520E0EE66EBB
:1006F000E66AA2DFE552E5520C0EE66EE66A9CDF82
:10070000E552E552010EE66EE66A96DFE552E552E5
:10071000800EE66EE66A90DFE552E552DE6ADD6A3B
:10072000D950020F146EDACF15F0DE501424E96EA2
:10073000DD501520EA6EEF5014E0D950020F146E10
:10074000DACF15F0DE501424E96EDD501520EA6E84
:10075000EF50E66E81DFE552DF2A010E01E3DB2A6E
:10076000DFD7C00EE66EE66A67DFE552E552DE6A65
:10077000DD6AD9500A0F146EDACF15F0DE5014245A
:10078000E96EDD501520EA6EEF5014E0D9500A0FE3
:10079000146EDACF15F0DE501424E96EDD5015200A
:1007A000EA6EEF50E66E58DFE552DF2A010E01E3F4
:1007B000DB2ADFD7150EE15C02E2E16AE552E16E69
:1007C000E552E7CFD9FF12000F0EC16EFD0E926EFB
:1007D000030E936E956A966A40DEEADE4DDFFCD723
:0207E000120005
:0E07E200006A0EAEFAEF03F00D6C0E1EE86A10
:1007F0000E22001E09AE02EF04F0086C091EE86A22
:100800000922001E93EC04F009BE12EF04F000AEC2
:10081000000C086C091EE86A0922046C051EE86ACF
:100820000522000C00BE09EF04F00188FF0C09C08E
:1008300013F008C012F008500D02F4CF07F0F3CF08
:1008400006F009500E02F4CF09F0F3CF08F00D02C4
:10085000F3500726F4500822E86A092212500E02CB
:10086000F3500726F4500822E86A09220EAE3DEF45
:1008700004F01250085E1350095A13AE000C0D50CC
:08088000085E0E50095A000C3D
:08088800060EF66E000EF76E7D
:10089000000EF86E00010900F5509B6F0900F5503D
:1008A0009C6F03E19B6701D03DD00900F550966F26
:1008B0000900F550976F0900F550986F090009007D
:1008C000F550E96E0900F550EA6E090009000900CB
:1008D000F550996F0900F5509A6F09000900F6CF9D
:1008E0009DF0F7CF9EF0F8CF9FF096C0F6FF97C02F
:1008F000F7FF98C0F8FF0001995302E19A5307E00F
:100900000900F550EE6E9907F8E29A07F9D79DC0F5
:10091000F6FF9EC0F7FF9FC0F8FF00019B07000E87
:060920009C5BBFD7120032
:0A092600056A046A100EE76ED8900F
:1009300008360936043605360D50045C0E5005584D
:1009400005E30D50045E0E50055A082AE72EF0D735
:02095000120093
:0E095200000EF36E00EE00F0080E01D8120049
:10096000EA6002D0EE6AFCD7F350E9601200EE6A4A
:02097000FCD7B2
:0E09720013EE00F023EE00F0F86A019C44EC56
:0E09800004F0C7EC04F0E4EC03F0FBD7120027
:02098E00120055
:06099000000040002C00F5
:00000001FF
